{
  "contractName": "ClearingHouse",
  "abi": [
    {
      "constant": false,
      "inputs": [
        {
          "name": "_id",
          "type": "uint256"
        },
        {
          "name": "_f",
          "type": "address"
        }
      ],
      "name": "newContract",
      "outputs": [],
      "payable": false,
      "stateMutability": "nonpayable",
      "type": "function"
    },
    {
      "constant": false,
      "inputs": [
        {
          "name": "_id",
          "type": "uint256"
        }
      ],
      "name": "settle",
      "outputs": [],
      "payable": false,
      "stateMutability": "nonpayable",
      "type": "function"
    }
  ],
  "bytecode": "0x6060604052341561000f57600080fd5b6105ec8061001e6000396000f30060606040526004361061004c576000357c0100000000000000000000000000000000000000000000000000000000900463ffffffff1680636bbb2fe5146100515780638df8280014610093575b600080fd5b341561005c57600080fd5b610091600480803590602001909190803573ffffffffffffffffffffffffffffffffffffffff169060200190919050506100b6565b005b341561009e57600080fd5b6100b46004808035906020019091905050610137565b005b80600083610100811015156100c757fe5b0160006101000a81548173ffffffffffffffffffffffffffffffffffffffff021916908373ffffffffffffffffffffffffffffffffffffffff1602179055506001610100600084815260200190815260200160002060006101000a81548160ff0219169083151502179055505050565b60008060011515610100600085815260200190815260200160002060009054906101000a900460ff16151514151561016e57600080fd5b426000846101008110151561017f57fe5b0160009054906101000a900473ffffffffffffffffffffffffffffffffffffffff1673ffffffffffffffffffffffffffffffffffffffff1663286f82f96000604051602001526040518163ffffffff167c0100000000000000000000000000000000000000000000000000000000028152600401602060405180830381600087803b151561020c57600080fd5b6102c65a03f1151561021d57600080fd5b5050506040518051905010151561023357600080fd5b6000836101008110151561024357fe5b0160009054906101000a900473ffffffffffffffffffffffffffffffffffffffff1673ffffffffffffffffffffffffffffffffffffffff166311da60b46000604051604001526040518163ffffffff167c01000000000000000000000000000000000000000000000000000000000281526004016040805180830381600087803b15156102cf57600080fd5b6102c65a03f115156102e057600080fd5b5050506040518051906020018051905080925081935050506000610100600085815260200190815260200160002060006101000a81548160ff0219169083151502179055506000836101008110151561033557fe5b0160009054906101000a900473ffffffffffffffffffffffffffffffffffffffff1673ffffffffffffffffffffffffffffffffffffffff1663b317f5ec6000604051602001526040518163ffffffff167c0100000000000000000000000000000000000000000000000000000000028152600401602060405180830381600087803b15156103c257600080fd5b6102c65a03f115156103d357600080fd5b5050506040518051905073ffffffffffffffffffffffffffffffffffffffff166108fc829081150290604051600060405180830381858888f19350505050151561041c57600080fd5b6000836101008110151561042c57fe5b0160009054906101000a900473ffffffffffffffffffffffffffffffffffffffff1673ffffffffffffffffffffffffffffffffffffffff166347d3fa6d6000604051602001526040518163ffffffff167c0100000000000000000000000000000000000000000000000000000000028152600401602060405180830381600087803b15156104b957600080fd5b6102c65a03f115156104ca57600080fd5b5050506040518051905073ffffffffffffffffffffffffffffffffffffffff166108fc839081150290604051600060405180830381858888f19350505050151561051357600080fd5b6000836101008110151561052357fe5b0160009054906101000a900473ffffffffffffffffffffffffffffffffffffffff1673ffffffffffffffffffffffffffffffffffffffff16634bb278f36040518163ffffffff167c0100000000000000000000000000000000000000000000000000000000028152600401600060405180830381600087803b15156105a757600080fd5b6102c65a03f115156105b857600080fd5b5050505050505600a165627a7a7230582024579de15edbb51c6c4b0741c68ee1123a2793712365cca51677e7219c17ef900029",
  "source": "pragma solidity ^0.4.2;\n\n\n// copyright abcde llc\n// author: Christopher Hannon\n\nimport \"./Future.sol\";\n\ncontract ClearingHouse {\n  Future[256] contracts;\n  mapping(uint=>bool) alive;\n  \n  uint[] contractIDs;\n\n  function newContract(uint _id, Future _f) {\n    contracts[_id] = _f;\n    alive[_id] = true;\n  }\n  \n  function settle(uint _id) {\n    //address contract = contracts[_id];\n    require (alive[_id] == true);\n    require (contracts[_id].getExpiration() < now);\n    int l;\n    int s;\n    (l, s) = contracts[_id].settle();\n    alive[_id] = false;\n    contracts[_id].getShort().transfer(uint(s));\n    contracts[_id].getLong().transfer(uint(l));\n    contracts[_id].finalize();\n  }\n\n}\n\n",
  "sourcePath": "/Users/nc/B/deriviblock/Proposal_CSPSE/bchain/dev/dapp_futures/contracts/ClearingHouse.sol",
  "compiler": {
    "name": "solc",
    "version": "0.4.19+commit.c4cbbb05.Emscripten.clang"
  },
  "schemaVersion": "2.0.0",
  "updatedAt": "2018-04-22T14:29:44.248Z"
}