{
  "contractName": "Future",
  "abi": [
    {
      "inputs": [
        {
          "name": "_id",
          "type": "uint256"
        },
        {
          "name": "_expiration",
          "type": "uint256"
        },
        {
          "name": "_s",
          "type": "address"
        },
        {
          "name": "_l",
          "type": "address"
        },
        {
          "name": "_k",
          "type": "int256"
        },
        {
          "name": "_q",
          "type": "address"
        }
      ],
      "payable": false,
      "stateMutability": "nonpayable",
      "type": "constructor"
    },
    {
      "anonymous": false,
      "inputs": [
        {
          "indexed": true,
          "name": "price",
          "type": "int256"
        }
      ],
      "name": "priceChangeEvent",
      "type": "event"
    },
    {
      "anonymous": false,
      "inputs": [
        {
          "indexed": true,
          "name": "owner",
          "type": "address"
        },
        {
          "indexed": true,
          "name": "p",
          "type": "uint8"
        }
      ],
      "name": "newOwnerEvent",
      "type": "event"
    },
    {
      "constant": false,
      "inputs": [],
      "name": "getExpiration",
      "outputs": [
        {
          "name": "exp",
          "type": "uint256"
        }
      ],
      "payable": false,
      "stateMutability": "nonpayable",
      "type": "function"
    },
    {
      "constant": false,
      "inputs": [],
      "name": "getLong",
      "outputs": [
        {
          "name": "a",
          "type": "address"
        }
      ],
      "payable": false,
      "stateMutability": "nonpayable",
      "type": "function"
    },
    {
      "constant": false,
      "inputs": [],
      "name": "getShort",
      "outputs": [
        {
          "name": "a",
          "type": "address"
        }
      ],
      "payable": false,
      "stateMutability": "nonpayable",
      "type": "function"
    },
    {
      "constant": false,
      "inputs": [],
      "name": "settle",
      "outputs": [
        {
          "name": "lval",
          "type": "int256"
        },
        {
          "name": "sval",
          "type": "int256"
        }
      ],
      "payable": false,
      "stateMutability": "nonpayable",
      "type": "function"
    },
    {
      "constant": false,
      "inputs": [],
      "name": "finalize",
      "outputs": [],
      "payable": false,
      "stateMutability": "nonpayable",
      "type": "function"
    },
    {
      "constant": false,
      "inputs": [
        {
          "name": "p",
          "type": "uint8"
        },
        {
          "name": "newOwner",
          "type": "address"
        }
      ],
      "name": "changeOwner",
      "outputs": [],
      "payable": false,
      "stateMutability": "nonpayable",
      "type": "function"
    }
  ],
  "bytecode": "0x6060604052341561000f57600080fd5b60405160c0806107a183398101604052808051906020019091908051906020019091908051906020019091908051906020019091908051906020019091908051906020019091905050856000819055508460018190555083600260016101000a81548173ffffffffffffffffffffffffffffffffffffffff021916908373ffffffffffffffffffffffffffffffffffffffff16021790555082600360006101000a81548173ffffffffffffffffffffffffffffffffffffffff021916908373ffffffffffffffffffffffffffffffffffffffff1602179055508160048190555080600660006101000a81548173ffffffffffffffffffffffffffffffffffffffff021916908373ffffffffffffffffffffffffffffffffffffffff16021790555061014b61015c64010000000002610424176401000000009004565b60058190555050505050505061024f565b600080600281111561016a57fe5b600260009054906101000a900460ff16600281111561018557fe5b141561024757600660009054906101000a900473ffffffffffffffffffffffffffffffffffffffff1673ffffffffffffffffffffffffffffffffffffffff1663bc31c1c160016000604051602001526040518263ffffffff167c010000000000000000000000000000000000000000000000000000000002815260040180828152602001915050602060405180830381600087803b151561022557600080fd5b6102c65a03f1151561023657600080fd5b50505060405180519050905061024c565b600190505b90565b6105438061025e6000396000f300606060405260043610610078576000357c0100000000000000000000000000000000000000000000000000000000900463ffffffff168063054246691461007d57806311da60b4146100c2578063286f82f9146100f257806347d3fa6d1461011b5780634bb278f314610170578063b317f5ec14610185575b600080fd5b341561008857600080fd5b6100c0600480803560ff1690602001909190803573ffffffffffffffffffffffffffffffffffffffff169060200190919050506101da565b005b34156100cd57600080fd5b6100d5610374565b604051808381526020018281526020019250505060405180910390f35b34156100fd57600080fd5b610105610399565b6040518082815260200191505060405180910390f35b341561012657600080fd5b61012e6103a3565b604051808273ffffffffffffffffffffffffffffffffffffffff1673ffffffffffffffffffffffffffffffffffffffff16815260200191505060405180910390f35b341561017b57600080fd5b6101836103cd565b005b341561019057600080fd5b6101986103fa565b604051808273ffffffffffffffffffffffffffffffffffffffff1673ffffffffffffffffffffffffffffffffffffffff16815260200191505060405180910390f35b6001808111156101e657fe5b8260018111156101f257fe5b141561023e5780600360006101000a81548173ffffffffffffffffffffffffffffffffffffffff021916908373ffffffffffffffffffffffffffffffffffffffff1602179055506102a0565b6000600181111561024b57fe5b82600181111561025757fe5b141561029f5780600260016101000a81548173ffffffffffffffffffffffffffffffffffffffff021916908373ffffffffffffffffffffffffffffffffffffffff1602179055505b5b600360009054906101000a900473ffffffffffffffffffffffffffffffffffffffff1673ffffffffffffffffffffffffffffffffffffffff16600260019054906101000a900473ffffffffffffffffffffffffffffffffffffffff1673ffffffffffffffffffffffffffffffffffffffff161415610321576103206103cd565b5b81600181111561032d57fe5b8173ffffffffffffffffffffffffffffffffffffffff167f74dbb59745bab57a231eac054a479ee9c8747e5ae33122b81bdf7e3e0f07ab6c60405160405180910390a35050565b60008061037f610424565b506004546005540391508160000390508181915091509091565b6000600154905090565b6000600360009054906101000a900473ffffffffffffffffffffffffffffffffffffffff16905090565b735aeda56215b167893e80b4fe645ba6d5bab767de73ffffffffffffffffffffffffffffffffffffffff16ff5b6000600260019054906101000a900473ffffffffffffffffffffffffffffffffffffffff16905090565b600080600281111561043257fe5b600260009054906101000a900460ff16600281111561044d57fe5b141561050f57600660009054906101000a900473ffffffffffffffffffffffffffffffffffffffff1673ffffffffffffffffffffffffffffffffffffffff1663bc31c1c160016000604051602001526040518263ffffffff167c010000000000000000000000000000000000000000000000000000000002815260040180828152602001915050602060405180830381600087803b15156104ed57600080fd5b6102c65a03f115156104fe57600080fd5b505050604051805190509050610514565b600190505b905600a165627a7a723058209bf59e61855ea85695dde479284a9de3f4b1709ed308df6e76b4d7d6786b28820029",
  "source": "pragma solidity ^0.4.2;\n\n\n// copyright abcde llc\n// author: Christopher Hannon\n\nimport \"./Quotes.sol\";\n\ncontract Future {\n  //Futures contract\n  enum UnderlyingCode {AAPL, GOOG, TSLA}\n  enum Position {SHORT, LONG}\n  \n  uint  id; // contract ID\n  uint  expiration; // TODO: need to figure out data type\n  \n  UnderlyingCode  under; // type of stock\n  \n  address short; // who has the short position\n  address long;  // ''\n  int  strikePrice; // (Times 100)\n  int currentValue; // of underlying : times 100 to get cents out\n  Quotes q;\n\n  event priceChangeEvent(int indexed price);\n  event newOwnerEvent(address indexed owner, Position indexed p);\n\n  function getExpiration() public returns(uint exp){\n    return expiration;\n  }\n\n  function getLong() public returns(address a){\n    return long;\n  }\n  function getShort() public returns(address a){\n    return short;\n  }\n\n  function Future(uint _id, uint _expiration, address _s, address _l, int _k, Quotes _q) public {\n    // this function sets the properties of the contract\n    id = _id;\n    expiration = _expiration; // block??\n    //under = _u;\n    short = _s;\n    long = _l;\n    strikePrice = _k;\n    q = _q;\n    \n    currentValue = UpdateValue();\n    \n  }\n\n  function EOD() private {\n    UpdateValue();\n\n  }\n\n  function settle() public returns(int lval, int sval){\n    UpdateValue();\n    //payoff function\n    lval = currentValue - strikePrice; // x 10000\n    sval = -lval;\n    return (lval,sval);\n  }\n\n  function finalize() {\n    selfdestruct(0x5AEDA56215b167893e80B4fE645BA6d5Bab767DE); // hardcoded address 9\n  }\n\n  function changeOwner(Position p, address newOwner) {\n    if (p == Position.LONG) {\n      long = newOwner;\n    }else{\n      if (p == Position.SHORT) {\n\t  short = newOwner;\n\t}\n    }\n    if (short == long) { finalize(); }\n    newOwnerEvent(newOwner, p);\n  }\n  \n  function UpdateValue() private returns(int val) {\n\n    if (under==UnderlyingCode.AAPL) {\n      return q.prices(1);\n    }\n\n    return 1;\n    //priceChangeEvent(newPrice);\n  }\n  \n}\n\n",
  "sourcePath": "/Users/nc/B/deriviblock/Proposal_CSPSE/bchain/dev/dapp_futures/contracts/Future.sol",
  "compiler": {
    "name": "solc",
    "version": "0.4.19+commit.c4cbbb05.Emscripten.clang"
  },
  "schemaVersion": "2.0.0",
  "updatedAt": "2018-04-22T14:29:44.259Z"
}