{
  "contractName": "Quotes",
  "abi": [
    {
      "constant": true,
      "inputs": [],
      "name": "AAPLprices",
      "outputs": [
        {
          "name": "",
          "type": "string"
        }
      ],
      "payable": false,
      "stateMutability": "view",
      "type": "function"
    },
    {
      "constant": true,
      "inputs": [],
      "name": "queryCount",
      "outputs": [
        {
          "name": "",
          "type": "uint256"
        }
      ],
      "payable": false,
      "stateMutability": "view",
      "type": "function"
    },
    {
      "constant": true,
      "inputs": [
        {
          "name": "",
          "type": "uint256"
        }
      ],
      "name": "prices",
      "outputs": [
        {
          "name": "",
          "type": "int256"
        }
      ],
      "payable": false,
      "stateMutability": "view",
      "type": "function"
    },
    {
      "inputs": [],
      "payable": false,
      "stateMutability": "nonpayable",
      "type": "constructor"
    },
    {
      "anonymous": false,
      "inputs": [
        {
          "indexed": false,
          "name": "price",
          "type": "string"
        }
      ],
      "name": "LogPriceUpdated",
      "type": "event"
    },
    {
      "anonymous": false,
      "inputs": [
        {
          "indexed": false,
          "name": "description",
          "type": "string"
        }
      ],
      "name": "LogNewOraclizeQuery",
      "type": "event"
    },
    {
      "constant": false,
      "inputs": [
        {
          "name": "_id",
          "type": "uint256"
        }
      ],
      "name": "getPrices",
      "outputs": [
        {
          "name": "price",
          "type": "int256"
        }
      ],
      "payable": false,
      "stateMutability": "nonpayable",
      "type": "function"
    },
    {
      "constant": false,
      "inputs": [
        {
          "name": "myid",
          "type": "bytes32"
        },
        {
          "name": "result",
          "type": "string"
        }
      ],
      "name": "__callback",
      "outputs": [],
      "payable": false,
      "stateMutability": "nonpayable",
      "type": "function"
    },
    {
      "constant": false,
      "inputs": [
        {
          "name": "myid",
          "type": "bytes32"
        },
        {
          "name": "result",
          "type": "string"
        },
        {
          "name": "proof",
          "type": "bytes"
        }
      ],
      "name": "__callback",
      "outputs": [],
      "payable": false,
      "stateMutability": "nonpayable",
      "type": "function"
    },
    {
      "constant": false,
      "inputs": [
        {
          "name": "time",
          "type": "uint256"
        },
        {
          "name": "code",
          "type": "uint8"
        }
      ],
      "name": "updatePrices",
      "outputs": [],
      "payable": true,
      "stateMutability": "payable",
      "type": "function"
    },
    {
      "constant": true,
      "inputs": [
        {
          "name": "s",
          "type": "string"
        }
      ],
      "name": "stringToUint",
      "outputs": [
        {
          "name": "",
          "type": "uint256"
        }
      ],
      "payable": false,
      "stateMutability": "view",
      "type": "function"
    }
  ],
  "bytecode": "0x6060604052600160075534156200001557600080fd5b736f485c8bf6fc43ea212e93bbf8ce046c7f1cb4756000806101000a81548173ffffffffffffffffffffffffffffffffffffffff021916908373ffffffffffffffffffffffffffffffffffffffff1602179055506200008b60016000620000916401000000000262000876176401000000009004565b62001362565b3073ffffffffffffffffffffffffffffffffffffffff1631620000fd6040805190810160405280600381526020017f55524c0000000000000000000000000000000000000000000000000000000000815250620003926401000000000262000f02176401000000009004565b1115620001be577f621c2856e3b87f81235f8ac8a22bbb40a0142961960710d00b2b6c380902b57e60405180806020018281038252604b8152602001807f4f7261636c697a6520717565727920776173204e4f542073656e742c20706c6581526020017f6173652061646420736f6d652045544820746f20636f76657220666f7220746881526020017f652071756572792066656500000000000000000000000000000000000000000081525060600191505060405180910390a16200038e565b7f621c2856e3b87f81235f8ac8a22bbb40a0142961960710d00b2b6c380902b57e6040518080602001828103825260358152602001807f4f7261636c697a65207175657279207761732073656e742c207374616e64696e81526020017f6720627920666f722074686520616e737765722e2e000000000000000000000081525060400191505060405180910390a1600060038111156200025a57fe5b8160038111156200026757fe5b14156200038d5760016006600062000372856040805190810160405280600381526020017f55524c000000000000000000000000000000000000000000000000000000000081525060a060405190810160405280607381526020017f68747470733a2f2f656f64686973746f726963616c646174612e636f6d2f617081526020017f692f656f642f4141504c2e55533f6170695f746f6b656e3d4f654146466d4d6c81526020017f694647356f7243557577414b51386c34575746513637595826666d743d6a736f81526020017f6e2666696c7465723d6c6173745f636c6f73650000000000000000000000000081525062000752640100000000026200128a176401000000009004565b60001916600019168152602001908152602001600020819055505b5b5050565b6000806000809054906101000a900473ffffffffffffffffffffffffffffffffffffffff1673ffffffffffffffffffffffffffffffffffffffff1614806200041957506000620004176000809054906101000a900473ffffffffffffffffffffffffffffffffffffffff1662000cd664010000000002620017cc176401000000009004565b145b1562000441576200043f600062000ce164010000000002620017d7176401000000009004565b505b6000809054906101000a900473ffffffffffffffffffffffffffffffffffffffff1673ffffffffffffffffffffffffffffffffffffffff166338cc48316000604051602001526040518163ffffffff167c0100000000000000000000000000000000000000000000000000000000028152600401602060405180830381600087803b1515620004cf57600080fd5b6102c65a03f11515620004e157600080fd5b5050506040518051905073ffffffffffffffffffffffffffffffffffffffff16600160009054906101000a900473ffffffffffffffffffffffffffffffffffffffff1673ffffffffffffffffffffffffffffffffffffffff161415156200062d576000809054906101000a900473ffffffffffffffffffffffffffffffffffffffff1673ffffffffffffffffffffffffffffffffffffffff166338cc48316000604051602001526040518163ffffffff167c0100000000000000000000000000000000000000000000000000000000028152600401602060405180830381600087803b1515620005d057600080fd5b6102c65a03f11515620005e257600080fd5b50505060405180519050600160006101000a81548173ffffffffffffffffffffffffffffffffffffffff021916908373ffffffffffffffffffffffffffffffffffffffff1602179055505b600160009054906101000a900473ffffffffffffffffffffffffffffffffffffffff1673ffffffffffffffffffffffffffffffffffffffff1663524f3889836000604051602001526040518263ffffffff167c01000000000000000000000000000000000000000000000000000000000281526004018080602001828103825283818151815260200191508051906020019080838360005b83811015620006e2578082015181840152602081019050620006c5565b50505050905090810190601f168015620007105780820380516001836020036101000a031916815260200191505b5092505050602060405180830381600087803b15156200072f57600080fd5b6102c65a03f115156200074157600080fd5b505050604051805190509050919050565b60008060008060009054906101000a900473ffffffffffffffffffffffffffffffffffffffff1673ffffffffffffffffffffffffffffffffffffffff161480620007db57506000620007d96000809054906101000a900473ffffffffffffffffffffffffffffffffffffffff1662000cd664010000000002620017cc176401000000009004565b145b15620008035762000801600062000ce164010000000002620017d7176401000000009004565b505b6000809054906101000a900473ffffffffffffffffffffffffffffffffffffffff1673ffffffffffffffffffffffffffffffffffffffff166338cc48316000604051602001526040518163ffffffff167c0100000000000000000000000000000000000000000000000000000000028152600401602060405180830381600087803b15156200089157600080fd5b6102c65a03f11515620008a357600080fd5b5050506040518051905073ffffffffffffffffffffffffffffffffffffffff16600160009054906101000a900473ffffffffffffffffffffffffffffffffffffffff1673ffffffffffffffffffffffffffffffffffffffff16141515620009ef576000809054906101000a900473ffffffffffffffffffffffffffffffffffffffff1673ffffffffffffffffffffffffffffffffffffffff166338cc48316000604051602001526040518163ffffffff167c0100000000000000000000000000000000000000000000000000000000028152600401602060405180830381600087803b15156200099257600080fd5b6102c65a03f11515620009a457600080fd5b50505060405180519050600160006101000a81548173ffffffffffffffffffffffffffffffffffffffff021916908373ffffffffffffffffffffffffffffffffffffffff1602179055505b600160009054906101000a900473ffffffffffffffffffffffffffffffffffffffff1673ffffffffffffffffffffffffffffffffffffffff1663524f3889856000604051602001526040518263ffffffff167c01000000000000000000000000000000000000000000000000000000000281526004018080602001828103825283818151815260200191508051906020019080838360005b8381101562000aa457808201518184015260208101905062000a87565b50505050905090810190601f16801562000ad25780820380516001836020036101000a031916815260200191505b5092505050602060405180830381600087803b151562000af157600080fd5b6102c65a03f1151562000b0357600080fd5b50505060405180519050905062030d403a02670de0b6b3a76400000181111562000b34576000600102915062000cce565b600160009054906101000a900473ffffffffffffffffffffffffffffffffffffffff1673ffffffffffffffffffffffffffffffffffffffff1663adf59f99828787876000604051602001526040518563ffffffff167c0100000000000000000000000000000000000000000000000000000000028152600401808481526020018060200180602001838103835285818151815260200191508051906020019080838360005b8381101562000bf657808201518184015260208101905062000bd9565b50505050905090810190601f16801562000c245780820380516001836020036101000a031916815260200191505b50838103825284818151815260200191508051906020019080838360005b8381101562000c5f57808201518184015260208101905062000c42565b50505050905090810190601f16801562000c8d5780820380516001836020036101000a031916815260200191505b50955050505050506020604051808303818588803b151562000cae57600080fd5b6125ee5a03f1151562000cc057600080fd5b505050506040518051905091505b509392505050565b6000813b9050919050565b600062000d0162000d0864010000000002620018d1176401000000009004565b9050919050565b60008062000d3e731d3b2638a7cc9f2cb3d298a3da7a90b67e5506ed62000cd664010000000002620017cc176401000000009004565b111562000df757731d3b2638a7cc9f2cb3d298a3da7a90b67e5506ed6000806101000a81548173ffffffffffffffffffffffffffffffffffffffff021916908373ffffffffffffffffffffffffffffffffffffffff16021790555062000ded6040805190810160405280600b81526020017f6574685f6d61696e6e6574000000000000000000000000000000000000000000815250620012976401000000000262001e46176401000000009004565b6001905062001294565b600062000e2c73c03a2615d5efaf5f49f60b7bb6583eaec212fdf162000cd664010000000002620017cc176401000000009004565b111562000ee55773c03a2615d5efaf5f49f60b7bb6583eaec212fdf16000806101000a81548173ffffffffffffffffffffffffffffffffffffffff021916908373ffffffffffffffffffffffffffffffffffffffff16021790555062000edb6040805190810160405280600c81526020017f6574685f726f707374656e330000000000000000000000000000000000000000815250620012976401000000000262001e46176401000000009004565b6001905062001294565b600062000f1a73b7a07bcf2ba2f2703b24c0691b5278999c59ac7e62000cd664010000000002620017cc176401000000009004565b111562000fd35773b7a07bcf2ba2f2703b24c0691b5278999c59ac7e6000806101000a81548173ffffffffffffffffffffffffffffffffffffffff021916908373ffffffffffffffffffffffffffffffffffffffff16021790555062000fc96040805190810160405280600981526020017f6574685f6b6f76616e0000000000000000000000000000000000000000000000815250620012976401000000000262001e46176401000000009004565b6001905062001294565b60006200100873146500cfd35b22e4a392fe0adc06de1a1368ed4862000cd664010000000002620017cc176401000000009004565b1115620010c15773146500cfd35b22e4a392fe0adc06de1a1368ed486000806101000a81548173ffffffffffffffffffffffffffffffffffffffff021916908373ffffffffffffffffffffffffffffffffffffffff160217905550620010b76040805190810160405280600b81526020017f6574685f72696e6b656279000000000000000000000000000000000000000000815250620012976401000000000262001e46176401000000009004565b6001905062001294565b6000620010f6736f485c8bf6fc43ea212e93bbf8ce046c7f1cb47562000cd664010000000002620017cc176401000000009004565b11156200115b57736f485c8bf6fc43ea212e93bbf8ce046c7f1cb4756000806101000a81548173ffffffffffffffffffffffffffffffffffffffff021916908373ffffffffffffffffffffffffffffffffffffffff1602179055506001905062001294565b6000620011907320e12a1f859b3feae5fb2a0a32c18f5a65555bbf62000cd664010000000002620017cc176401000000009004565b1115620011f5577320e12a1f859b3feae5fb2a0a32c18f5a65555bbf6000806101000a81548173ffffffffffffffffffffffffffffffffffffffff021916908373ffffffffffffffffffffffffffffffffffffffff1602179055506001905062001294565b60006200122a7351efaf4c8b3c9afbd5ab9f4bbc82784ab6ef8faa62000cd664010000000002620017cc176401000000009004565b11156200128f577351efaf4c8b3c9afbd5ab9f4bbc82784ab6ef8faa6000806101000a81548173ffffffffffffffffffffffffffffffffffffffff021916908373ffffffffffffffffffffffffffffffffffffffff1602179055506001905062001294565b600090505b90565b8060029080519060200190620012af929190620012b3565b5050565b828054600181600116156101000203166002900490600052602060002090601f016020900481019282601f10620012f657805160ff191683800117855562001327565b8280016001018555821562001327579182015b828111156200132657825182559160200191906001019062001309565b5b5090506200133691906200133a565b5090565b6200135f91905b808211156200135b57600081600090555060010162001341565b5090565b90565b611f7380620013726000396000f30060606040526004361061008e576000357c0100000000000000000000000000000000000000000000000000000000900463ffffffff1680631bd951551461009357806327dc297e1461010457806338bbfa501461016e578063698ea2f11461021b57806391492956146102a95780639b2aded4146102e0578063bc31c1c114610309578063dc53639814610340575b600080fd5b341561009e57600080fd5b6100ee600480803590602001908201803590602001908080601f01602080910402602001604051908101604052809392919081815260200183838082843782019150505050505091905050610364565b6040518082815260200191505060405180910390f35b341561010f57600080fd5b61016c60048080356000191690602001909190803590602001908201803590602001908080601f01602080910402602001604051908101604052809392919081815260200183838082843782019150505050505091905050610574565b005b341561017957600080fd5b61021960048080356000191690602001909190803590602001908201803590602001908080601f0160208091040260200160405190810160405280939291908181526020018383808284378201915050505050509190803590602001908201803590602001908080601f016020809104026020016040519081016040528093929190818152602001838380828437820191505050505050919050506105a6565b005b341561022657600080fd5b61022e61079d565b6040518080602001828103825283818151815260200191508051906020019080838360005b8381101561026e578082015181840152602081019050610253565b50505050905090810190601f16801561029b5780820380516001836020036101000a031916815260200191505b509250505060405180910390f35b34156102b457600080fd5b6102ca600480803590602001909190505061083b565b6040518082815260200191505060405180910390f35b34156102eb57600080fd5b6102f3610858565b6040518082815260200191505060405180910390f35b341561031457600080fd5b61032a600480803590602001909190505061085e565b6040518082815260200191505060405180910390f35b610362600480803590602001909190803560ff16906020019091905050610876565b005b600061036e611e60565b60008084925060009150600090505b82518110156105695760307f01000000000000000000000000000000000000000000000000000000000000000283828151811015156103b857fe5b9060200101517f010000000000000000000000000000000000000000000000000000000000000090047f0100000000000000000000000000000000000000000000000000000000000000027effffffffffffffffffffffffffffffffffffffffffffffffffffffffffffff1916101580156104d0575060397f010000000000000000000000000000000000000000000000000000000000000002838281518110151561046057fe5b9060200101517f010000000000000000000000000000000000000000000000000000000000000090047f0100000000000000000000000000000000000000000000000000000000000000027effffffffffffffffffffffffffffffffffffffffffffffffffffffffffffff191611155b1561055c57603083828151811015156104e557fe5b9060200101517f010000000000000000000000000000000000000000000000000000000000000090047f0100000000000000000000000000000000000000000000000000000000000000027f0100000000000000000000000000000000000000000000000000000000000000900403600a83020191505b808060010191505061037d565b819350505050919050565b6105a2828260006040518059106105885750595b9080825280601f01601f19166020018201604052506105a6565b5050565b6105ae611e74565b60006105b8610b46565b73ffffffffffffffffffffffffffffffffffffffff163373ffffffffffffffffffffffffffffffffffffffff161415156105f157600080fd5b60016006600087600019166000191681526020019081526020016000205414156107955761061e84610e5c565b9150606461068261067d6106786106696040805190810160405280600181526020017f2e00000000000000000000000000000000000000000000000000000000000000815250610e5c565b86610e8a90919063ffffffff16565b610ea4565b610364565b026005600060018152602001908152602001600020819055506106ac6106a783610ea4565b610364565b905080600560006001815260200190815260200160002054016005600060018152602001908152602001600020819055507f71f1a5645e51a2da828ffcf79cc17da88eb25e1bca8b9dced23210847a4769c1846040518080602001828103825283818151815260200191508051906020019080838360005b8381101561073f578082015181840152602081019050610724565b50505050905090810190601f16801561076c5780820380516001836020036101000a031916815260200191505b509250505060405180910390a1836008908051906020019061078f929190611e8e565b50610796565b5b5050505050565b60088054600181600116156101000203166002900480601f0160208091040260200160405190810160405280929190818152602001828054600181600116156101000203166002900480156108335780601f1061080857610100808354040283529160200191610833565b820191906000526020600020905b81548152906001019060200180831161081657829003601f168201915b505050505081565b600060056000838152602001908152602001600020549050919050565b60075481565b60056020528060005260406000206000915090505481565b3073ffffffffffffffffffffffffffffffffffffffff16316108cc6040805190810160405280600381526020017f55524c0000000000000000000000000000000000000000000000000000000000815250610f02565b111561098b577f621c2856e3b87f81235f8ac8a22bbb40a0142961960710d00b2b6c380902b57e60405180806020018281038252604b8152602001807f4f7261636c697a6520717565727920776173204e4f542073656e742c20706c6581526020017f6173652061646420736f6d652045544820746f20636f76657220666f7220746881526020017f652071756572792066656500000000000000000000000000000000000000000081525060600191505060405180910390a1610b42565b7f621c2856e3b87f81235f8ac8a22bbb40a0142961960710d00b2b6c380902b57e6040518080602001828103825260358152602001807f4f7261636c697a65207175657279207761732073656e742c207374616e64696e81526020017f6720627920666f722074686520616e737765722e2e000000000000000000000081525060400191505060405180910390a160006003811115610a2657fe5b816003811115610a3257fe5b1415610b4157600160066000610b26856040805190810160405280600381526020017f55524c000000000000000000000000000000000000000000000000000000000081525060a060405190810160405280607381526020017f68747470733a2f2f656f64686973746f726963616c646174612e636f6d2f617081526020017f692f656f642f4141504c2e55533f6170695f746f6b656e3d4f654146466d4d6c81526020017f694647356f7243557577414b51386c34575746513637595826666d743d6a736f81526020017f6e2666696c7465723d6c6173745f636c6f73650000000000000000000000000081525061128a565b60001916600019168152602001908152602001600020819055505b5b5050565b6000806000809054906101000a900473ffffffffffffffffffffffffffffffffffffffff1673ffffffffffffffffffffffffffffffffffffffff161480610bb657506000610bb46000809054906101000a900473ffffffffffffffffffffffffffffffffffffffff166117cc565b145b15610bc757610bc560006117d7565b505b6000809054906101000a900473ffffffffffffffffffffffffffffffffffffffff1673ffffffffffffffffffffffffffffffffffffffff166338cc48316000604051602001526040518163ffffffff167c0100000000000000000000000000000000000000000000000000000000028152600401602060405180830381600087803b1515610c5457600080fd5b6102c65a03f11515610c6557600080fd5b5050506040518051905073ffffffffffffffffffffffffffffffffffffffff16600160009054906101000a900473ffffffffffffffffffffffffffffffffffffffff1673ffffffffffffffffffffffffffffffffffffffff16141515610dae576000809054906101000a900473ffffffffffffffffffffffffffffffffffffffff1673ffffffffffffffffffffffffffffffffffffffff166338cc48316000604051602001526040518163ffffffff167c0100000000000000000000000000000000000000000000000000000000028152600401602060405180830381600087803b1515610d5257600080fd5b6102c65a03f11515610d6357600080fd5b50505060405180519050600160006101000a81548173ffffffffffffffffffffffffffffffffffffffff021916908373ffffffffffffffffffffffffffffffffffffffff1602179055505b600160009054906101000a900473ffffffffffffffffffffffffffffffffffffffff1673ffffffffffffffffffffffffffffffffffffffff1663c281d19e6000604051602001526040518163ffffffff167c0100000000000000000000000000000000000000000000000000000000028152600401602060405180830381600087803b1515610e3c57600080fd5b6102c65a03f11515610e4d57600080fd5b50505060405180519050905090565b610e64611e74565b600060208301905060408051908101604052808451815260200182815250915050919050565b610e92611e74565b610e9d8383836117e8565b5092915050565b610eac611f0e565b610eb4611f0e565b60008360000151604051805910610ec85750595b9080825280601f01601f19166020018201604052509150602082019050610ef88185602001518660000151611886565b8192505050919050565b6000806000809054906101000a900473ffffffffffffffffffffffffffffffffffffffff1673ffffffffffffffffffffffffffffffffffffffff161480610f7257506000610f706000809054906101000a900473ffffffffffffffffffffffffffffffffffffffff166117cc565b145b15610f8357610f8160006117d7565b505b6000809054906101000a900473ffffffffffffffffffffffffffffffffffffffff1673ffffffffffffffffffffffffffffffffffffffff166338cc48316000604051602001526040518163ffffffff167c0100000000000000000000000000000000000000000000000000000000028152600401602060405180830381600087803b151561101057600080fd5b6102c65a03f1151561102157600080fd5b5050506040518051905073ffffffffffffffffffffffffffffffffffffffff16600160009054906101000a900473ffffffffffffffffffffffffffffffffffffffff1673ffffffffffffffffffffffffffffffffffffffff1614151561116a576000809054906101000a900473ffffffffffffffffffffffffffffffffffffffff1673ffffffffffffffffffffffffffffffffffffffff166338cc48316000604051602001526040518163ffffffff167c0100000000000000000000000000000000000000000000000000000000028152600401602060405180830381600087803b151561110e57600080fd5b6102c65a03f1151561111f57600080fd5b50505060405180519050600160006101000a81548173ffffffffffffffffffffffffffffffffffffffff021916908373ffffffffffffffffffffffffffffffffffffffff1602179055505b600160009054906101000a900473ffffffffffffffffffffffffffffffffffffffff1673ffffffffffffffffffffffffffffffffffffffff1663524f3889836000604051602001526040518263ffffffff167c01000000000000000000000000000000000000000000000000000000000281526004018080602001828103825283818151815260200191508051906020019080838360005b8381101561121d578082015181840152602081019050611202565b50505050905090810190601f16801561124a5780820380516001836020036101000a031916815260200191505b5092505050602060405180830381600087803b151561126857600080fd5b6102c65a03f1151561127957600080fd5b505050604051805190509050919050565b60008060008060009054906101000a900473ffffffffffffffffffffffffffffffffffffffff1673ffffffffffffffffffffffffffffffffffffffff1614806112fc575060006112fa6000809054906101000a900473ffffffffffffffffffffffffffffffffffffffff166117cc565b145b1561130d5761130b60006117d7565b505b6000809054906101000a900473ffffffffffffffffffffffffffffffffffffffff1673ffffffffffffffffffffffffffffffffffffffff166338cc48316000604051602001526040518163ffffffff167c0100000000000000000000000000000000000000000000000000000000028152600401602060405180830381600087803b151561139a57600080fd5b6102c65a03f115156113ab57600080fd5b5050506040518051905073ffffffffffffffffffffffffffffffffffffffff16600160009054906101000a900473ffffffffffffffffffffffffffffffffffffffff1673ffffffffffffffffffffffffffffffffffffffff161415156114f4576000809054906101000a900473ffffffffffffffffffffffffffffffffffffffff1673ffffffffffffffffffffffffffffffffffffffff166338cc48316000604051602001526040518163ffffffff167c0100000000000000000000000000000000000000000000000000000000028152600401602060405180830381600087803b151561149857600080fd5b6102c65a03f115156114a957600080fd5b50505060405180519050600160006101000a81548173ffffffffffffffffffffffffffffffffffffffff021916908373ffffffffffffffffffffffffffffffffffffffff1602179055505b600160009054906101000a900473ffffffffffffffffffffffffffffffffffffffff1673ffffffffffffffffffffffffffffffffffffffff1663524f3889856000604051602001526040518263ffffffff167c01000000000000000000000000000000000000000000000000000000000281526004018080602001828103825283818151815260200191508051906020019080838360005b838110156115a757808201518184015260208101905061158c565b50505050905090810190601f1680156115d45780820380516001836020036101000a031916815260200191505b5092505050602060405180830381600087803b15156115f257600080fd5b6102c65a03f1151561160357600080fd5b50505060405180519050905062030d403a02670de0b6b3a76400000181111561163257600060010291506117c4565b600160009054906101000a900473ffffffffffffffffffffffffffffffffffffffff1673ffffffffffffffffffffffffffffffffffffffff1663adf59f99828787876000604051602001526040518563ffffffff167c0100000000000000000000000000000000000000000000000000000000028152600401808481526020018060200180602001838103835285818151815260200191508051906020019080838360005b838110156116f25780820151818401526020810190506116d7565b50505050905090810190601f16801561171f5780820380516001836020036101000a031916815260200191505b50838103825284818151815260200191508051906020019080838360005b8381101561175857808201518184015260208101905061173d565b50505050905090810190601f1680156117855780820380516001836020036101000a031916815260200191505b50955050505050506020604051808303818588803b15156117a557600080fd5b6125ee5a03f115156117b657600080fd5b505050506040518051905091505b509392505050565b6000813b9050919050565b60006117e16118d1565b9050919050565b6117f0611e74565b600061180e8560000151866020015186600001518760200151611d60565b9050846020015183602001818152505084602001518103836000018181525050846000015185602001510181141561185057600085600001818152505061187b565b8360000151836000015101856000018181510391508181525050836000015181018560200181815250505b829150509392505050565b60005b6020821015156118ae5782518452602084019350602083019250602082039150611889565b6001826020036101000a0390508019835116818551168181178652505050505050565b6000806118f1731d3b2638a7cc9f2cb3d298a3da7a90b67e5506ed6117cc565b111561199257731d3b2638a7cc9f2cb3d298a3da7a90b67e5506ed6000806101000a81548173ffffffffffffffffffffffffffffffffffffffff021916908373ffffffffffffffffffffffffffffffffffffffff1602179055506119896040805190810160405280600b81526020017f6574685f6d61696e6e6574000000000000000000000000000000000000000000815250611e46565b60019050611d5d565b60006119b173c03a2615d5efaf5f49f60b7bb6583eaec212fdf16117cc565b1115611a525773c03a2615d5efaf5f49f60b7bb6583eaec212fdf16000806101000a81548173ffffffffffffffffffffffffffffffffffffffff021916908373ffffffffffffffffffffffffffffffffffffffff160217905550611a496040805190810160405280600c81526020017f6574685f726f707374656e330000000000000000000000000000000000000000815250611e46565b60019050611d5d565b6000611a7173b7a07bcf2ba2f2703b24c0691b5278999c59ac7e6117cc565b1115611b125773b7a07bcf2ba2f2703b24c0691b5278999c59ac7e6000806101000a81548173ffffffffffffffffffffffffffffffffffffffff021916908373ffffffffffffffffffffffffffffffffffffffff160217905550611b096040805190810160405280600981526020017f6574685f6b6f76616e0000000000000000000000000000000000000000000000815250611e46565b60019050611d5d565b6000611b3173146500cfd35b22e4a392fe0adc06de1a1368ed486117cc565b1115611bd25773146500cfd35b22e4a392fe0adc06de1a1368ed486000806101000a81548173ffffffffffffffffffffffffffffffffffffffff021916908373ffffffffffffffffffffffffffffffffffffffff160217905550611bc96040805190810160405280600b81526020017f6574685f72696e6b656279000000000000000000000000000000000000000000815250611e46565b60019050611d5d565b6000611bf1736f485c8bf6fc43ea212e93bbf8ce046c7f1cb4756117cc565b1115611c5457736f485c8bf6fc43ea212e93bbf8ce046c7f1cb4756000806101000a81548173ffffffffffffffffffffffffffffffffffffffff021916908373ffffffffffffffffffffffffffffffffffffffff16021790555060019050611d5d565b6000611c737320e12a1f859b3feae5fb2a0a32c18f5a65555bbf6117cc565b1115611cd6577320e12a1f859b3feae5fb2a0a32c18f5a65555bbf6000806101000a81548173ffffffffffffffffffffffffffffffffffffffff021916908373ffffffffffffffffffffffffffffffffffffffff16021790555060019050611d5d565b6000611cf57351efaf4c8b3c9afbd5ab9f4bbc82784ab6ef8faa6117cc565b1115611d58577351efaf4c8b3c9afbd5ab9f4bbc82784ab6ef8faa6000806101000a81548173ffffffffffffffffffffffffffffffffffffffff021916908373ffffffffffffffffffffffffffffffffffffffff16021790555060019050611d5d565b600090505b90565b60008060008060008060008060008b97508c8b111515611e305760208b111515611dea5760018b60200360080260020a03196001029550858a511694508a8d8d010393508588511692505b84600019168360001916141515611de2578388101515611dcf578c8c019850611e36565b8780600101985050858851169250611dab565b879850611e36565b8a8a209150600096505b8a8d0387111515611e2f578a88209050806000191682600019161415611e1c57879850611e36565b6001880197508680600101975050611df4565b5b8c8c0198505b5050505050505050949350505050565b8060029080519060200190611e5c929190611e8e565b5050565b602060405190810160405280600081525090565b604080519081016040528060008152602001600081525090565b828054600181600116156101000203166002900490600052602060002090601f016020900481019282601f10611ecf57805160ff1916838001178555611efd565b82800160010185558215611efd579182015b82811115611efc578251825591602001919060010190611ee1565b5b509050611f0a9190611f22565b5090565b602060405190810160405280600081525090565b611f4491905b80821115611f40576000816000905550600101611f28565b5090565b905600a165627a7a72305820924f42da39fc9573890e47d5c15019ac9dd58382da591b459bc2d74e6e24d51c0029",
  "source": "pragma solidity ^0.4.2;\n\n\n// copyright abcde llc\n// author: Christopher Hannon\n\nimport \"./usingOracleize.sol\";    //\\\\\"github.com/oraclize/ethereum-api/oraclizeAPI.sol\";\nimport \"./strings.sol\";           //github.com/Arachnid/solidity-stringutils/strings.sol\";\n\ncontract Quotes is usingOraclize{\n\n  //slicing utilities\n  using strings for *;\n  \n  enum UnderlyingCode {AAPL, GOOG, TSLA, FB}\n\n  mapping(uint=>int) public prices;\n  mapping(bytes32=>uint) private queries;\n  uint public queryCount = 1;\n  string public AAPLprices;\n  \n  event LogPriceUpdated(string price);\n  event LogNewOraclizeQuery(string description);\n\n  function getPrices(uint _id) returns(int price){\n    return prices[_id];\n  }\n\n  function Quotes() {\n    //OAR = OraclizeAddrResolverI(0xC2f02cADd6d964C79dbd80397CAA919ba3c14793);\n    OAR = OraclizeAddrResolverI(0x6f485C8BF6fc43eA212E93BBF8ce046C7f1cb475);\n    //OAR = OraclizeAddrResolverI(0x6f485C8BF6fc43eA212E93BBF8ce046C7f1cb475);\n\n    updatePrices(1,UnderlyingCode.AAPL);\n    //updatePrices(1,GOOG);\n  }\n  \n  function __callback(bytes32 myid, string result, bytes proof) {\n    require(msg.sender == oraclize_cbAddress());\n\n    if (queries[myid] == 1){\n      //parse and update AAPL\n      var s = result.toSlice();\n      prices[1] = int(stringToUint(s.split(\".\".toSlice()).toString())*100); // get the first part\n      uint x = stringToUint(s.toString()); // get the second part \n      prices[1] = prices[1] + int(x) ;\n      LogPriceUpdated(result);\n      AAPLprices=result;\n      //updatePrices(60, UnderlyingCode.AAPL); // once per min\n    } else{\n      //different query\n    }\n  }   \n\n  function updatePrices(uint time, UnderlyingCode code) payable {\n    if (oraclize_getPrice(\"URL\") > this.balance) {\n      LogNewOraclizeQuery(\"Oraclize query was NOT sent, please add some ETH to cover for the query fee\");\n    } else {\n      LogNewOraclizeQuery(\"Oraclize query was sent, standing by for the answer..\");\n      //oraclize_query(\"URL\", \"json(http://api.fixer.io/latest?symbols=USD,GBP).rates.GBP\");                     \n      if (code == UnderlyingCode.AAPL){\n\t//queries[oraclize_query(time,\"URL\" ,'json(https://www.alphavantage.co/query?function=TIME_SERIES_INTRADAY&symbol=AAPL&interval=1min&apikey=6HBJU7XXQ5LHA1G4.\"Time Series (1min)\".\"2018-04-20 16:00:00\".\"4. close\")')] = 1;\n\tqueries[oraclize_query(time, \"URL\", \"https://eodhistoricaldata.com/api/eod/AAPL.US?api_token=OeAFFmMliFG5orCUuwAKQ8l4WWFQ67YX&fmt=json&filter=last_close\")] = 1;\n      }\n    }\n  }\n\n  function stringToUint(string s) constant returns (uint) {\n    bytes memory b = bytes(s);\n    uint result = 0;\n    for (uint i = 0; i < b.length; i++) { // c = b[i] was not needed\n        if (b[i] >= 48 && b[i] <= 57) {\n            result = result * 10 + (uint(b[i]) - 48); // bytes and int are not compatible with the operator -.\n        }\n    }\n    return result; // \n  }\n}\n",
  "sourcePath": "/Users/nc/B/deriviblock/Proposal_CSPSE/bchain/dev/dapp_futures/contracts/Quotes.sol",
  "compiler": {
    "name": "solc",
    "version": "0.4.19+commit.c4cbbb05.Emscripten.clang"
  },
  "schemaVersion": "2.0.0",
  "updatedAt": "2018-04-22T14:29:44.263Z"
}